:10000000180800201117000071150000731500007A
:10001000751500007715000079150000000000003C
:100020000000000000000000000000007B15000040
:100030007D150000000000007F1500008115000004
:100040008315000085150000871500008915000044
:100050008B1500008D1500008F1500009115000014
:1000600093150000951500009715000099150000E4
:100070009B1500009D1500009F150000A1150000B4
:10008000A3150000A5150000A7150000A915000084
:10009000AB150000AD150000AF150000B115000054
:1000A000B3150000B5150000B7150000B915000024
:1000B000BB150000BD150000BF150000C1150000F4
:1000C000C3150000C5150000C7150000C9150000C4
:1000D000CB150000CD150000CF150000D115000094
:1000E000D3150000D5150000D7150000D915000064
:1000F000DB150000DD150000DF150000E115000034
:10010000E3150000E5150000E7150000E915000003
:10011000EB150000ED150000EF150000F1150000D3
:10012000F3150000F5150000F7150000F9150000A3
:10013000FB150000FD150000FF1500000116000072
:10014000031600000516000007160000091600003F
:100150000B1600000D1600000F160000111600000F
:1001600013160000151600001716000019160000DF
:100170001B1600001D1600001F16000021160000AF
:100180002316000000000000000000000000000036
:100190002516000027160000291600002B16000067
:1001A0002D1600002F160000311600003316000037
:1001B0003516000037160000391600003B16000007
:1001C000DFF800F001000020DFF800F075000020EB
:1001D00040B24109DFF8D42752F82110012210F073
:1001E0001F0012FA00F0014201D0012000E00020BF
:1001F000704710B440B24109DFF8B427012310F072
:100200001F04A34042F8213010BC7047BFF34F8F4A
:10021000DFF8A007006810F4E060DFF89C170843DF
:10022000DFF890170860BFF34F8FFEE7DFF88C0709
:1002300052210160DFF88807B12101607047DFF8C3
:10024000840700210160DFF8800798210160DFF852
:100250007C0704210160DFF8780740210160DFF8A6
:10026000740700210160DFF8700700210160DFF8EA
:100270006C0700210160DFF8680745210160DFF8A5
:10028000640700210160DFF8600728210160DFF8C2
:100290005C07F8210160DFF85807C8210160DFF82A
:1002A000540710210160DFF85007DB210160DFF8FF
:1002B0004C0700210160DFF848073F210160DFF8AB
:1002C00044073F210160DFF8400700210160DFF8AB
:1002D0003C0700210160DFF8380700210160DFF8EA
:1002E000340700210160DFF8300700210160DFF8EA
:1002F0002C0700210160DFF8280701210160DFF8E9
:10030000240700210160DFF8200700210160DFF8E9
:100310001C0700210160DFF8180700210160DFF8E9
:10032000140701210160DFF8100700210160DFF8E8
:100330000C074D210160DFF808070B210160DFF891
:10034000040700210160DFF8000700210160DFF8E9
:10035000FC0600210160DFF8F80600210160DFF8EB
:10036000F40602210160DFF8F00600210160DFF8E9
:10037000EC0618210160DFF8E80604210160DFF8CF
:10038000E40600210160DFF8E00600210160DFF8EB
:10039000DC0600210160DFF8D80600210160DFF8EB
:1003A000D40600210160DFF8D00604210160DFF8E7
:1003B000CC0600210160DFF8C8069F210160DFF84C
:1003C000C40600210160DFF8C00600210160DFF8EB
:1003D000BC0600210160DFF8B80600210160DFF8EB
:1003E000B40640210160DFF8B00600210160DFF8AB
:1003F000AC06C1210160DFF8A80600210160DFF82A
:10040000A40600210160DFF8A00600210160DFF8EA
:100410009C0600210160DFF8980600210160DFF8EA
:10042000940601210160DFF8900600210160DFF8E9
:100430008C0600210160DFF8880600210160DFF8EA
:10044000840600210160DFF8800600210160DFF8EA
:100450007C0600210160DFF8780600210160DFF8EA
:10046000740600210160DFF8700600210160DFF8EA
:100470006C0600210160DFF8680600210160DFF8EA
:10048000640600210160DFF8600600210160DFF8EA
:100490005C0600210160DFF8580600210160DFF8EA
:1004A000540600210160DFF8500600210160DFF8EA
:1004B0004C0600210160DFF8480601210160DFF8E9
:1004C000440600210160DFF8400600210160DFF8EA
:1004D0003C0600210160DFF8380602210160DFF8E8
:1004E000340600210160DFF8300601210160DFF8E9
:1004F0002C0600210160DFF8280600210160DFF8EA
:10050000240600210160DFF8200600210160DFF8E9
:100510001C0607210160DFF8180600210160704702
:10052000DFF8101601220A60DFF80C1600220A60BC
:10053000DFF8081609220A60DFF8041660220A6054
:10054000DFF8001600220A6080B216280BD380B2B2
:10055000192808D2DFF8F01557220A60DFF8EC15E9
:100560000B220A6075E080B219280BD380B21D28D7
:1005700008D2DFF8D41558220A60DFF8D0150E2211
:100580000A6066E080B21C280BD380B22A2808D209
:10059000DFF8B4155C220A60DFF8B0150D220A609E
:1005A00057E080B22D2807D380B2322804D2DFF87A
:1005B00098151F220A604CE080B232280BD380B21B
:1005C000382808D2DFF8801564220A60DFF87C152D
:1005D0000F220A603DE080B24A280BD380B2532834
:1005E00008D2DFF8641566220A60DFF860150E2273
:1005F0000A602EE080B25B280BD380B2662808D256
:10060000DFF8441567220A60DFF8401508220A6007
:100610001FE080B294280BD380B2A52808D2DFF85F
:1006200028156C220A60DFF824150D220A6010E0FC
:1006300080B2B0F5957F0CD34FF4A47180B288429C
:1006400007D2DFF8041576220A60DFF800150E22C3
:100650000A60DFF8FC1401220A60DFF8F8140122B6
:100660000A607047DFF8F01401220A60DFF8EC142A
:1006700000220A60DFF8E81409220A60DFF8E414B7
:1006800060220A60DFF8E01410220A6080B21628A7
:100690000BD380B2192808D2DFF8D01457220A6091
:1006A000DFF8CC140B220A6075E080B219280BD356
:1006B00080B21D2808D2DFF8B41458220A60DFF88F
:1006C000B0140E220A6066E080B21C280BD380B200
:1006D0002A2808D2DFF894145C220A60DFF890140C
:1006E0000D220A6057E080B22D2807D380B232284D
:1006F00004D2DFF878141F220A604CE080B232285E
:100700000BD380B2382808D2DFF8601464220A6064
:10071000DFF85C140F220A603DE080B24A280BD358
:1007200080B2532808D2DFF8441466220A60DFF84A
:1007300040140E220A602EE080B25B280BD380B2F8
:10074000662808D2DFF8241467220A60DFF8201434
:1007500008220A601FE080B294280BD380B2A5283B
:1007600008D2DFF808146C220A60DFF804140D22A6
:100770000A6010E080B2B0F5957F0CD34FF4A471FD
:1007800080B2884207D2DFF8E41376220A60DFF8ED
:10079000E0130E220A60DFF8DC1301220A60DFF8A2
:1007A000D81301220A60704780F3088870477047A9
:1007B000C0B2012803D1DFF8C413C0B2086070478B
:1007C00038B504000025DFF8B8030068401CDFF8E6
:1007D000B01308600620FFF7FBFC002808D0DFF804
:1007E000A40300682070012005000620FFF701FD2A
:1007F0002800C0B232BD01000020E34A1268002A7E
:1008000004D0E24A12680A7001221000C0B2704798
:1008100010B400228A420BD2135CDA4C2360634B83
:100820001B681B06FBD5624B80241C60521CF1E741
:1008300010BC704710B400228A420CD2135CD34C17
:100840002360D34B1B689B05FBD5D24B4FF4007440
:100850001C60521CF0E710BC704780B500F089F8AE
:1008600000200068FFF7A0FFCB4800210160FFF7E0
:10087000CDFCFEE780B54FF48040FFF7A1FC5FF4AC
:10088000A830FFF79DFC5FF4B030FFF799FC5FF4F0
:10089000B830FFF795FCC148C068FFF795FCBF482A
:1008A0000069FFF791FC5FF42030FFF789FC5FF4EB
:1008B0002430FFF785FC5FF42C30FFF781FC5FF4F8
:1008C0003030FFF77DFC5FF43430FFF779FC5FF4E4
:1008D0003830FFF775FC5FF43C30FFF771FCAF4830
:1008E0008069FFF771FCAD48C069FFF76DFCAB484C
:1008F000006AFFF769FCA948406AFFF765FC5FF4EE
:10090000A020FFF75DFC5FF4A220FFF759FC5FF425
:10091000A420FFF755FC5FF4A620FFF751FC5FF41D
:10092000A820FFF74DFC5FF4AC20FFF749FC5FF413
:10093000AE20FFF745FC9948C06AFFF745FC01BDB2
:10094000002097490978C9B2462910D195490978FC
:10095000C9B24F290BD194490978C9B2542906D19B
:1009600092490978C9B2412901D101210800C0B2D8
:1009700070478B48002101708A48002101708A4825
:1009800000210170894800210170704710B544F2C0
:1009900004044FF480400068FFF706FF7E484FF4E0
:1009A000804101602068804710BD000000E200E047
:1009B00080E200E00CED00E00400FA0500200F40AA
:1009C00004200F4000000C4004000C4008000C40C4
:1009D0000C000C4028000C402C000C4030000C4057
:1009E00038000C4000010C4004010C4008010C4090
:1009F0002C010C4030010C4038010C4000020C402E
:100A000004020C4008020C4028020C402C020C404E
:100A100030020C4038020C4000030C4004030C4030
:100A200008030C400C030C4028030C402C030C4022
:100A300030030C4038030C4000040C4004040C400C
:100A400008040C400C040C4028040C402C040C40FE
:100A500030040C4038040C4000050C4004050C40E8
:100A600008050C400C050C4010050C4028050C40F6
:100A70002C050C4030050C4038050C4000060C409D
:100A800004060C4008060C4028060C402C060C40BE
:100A900030060C4038060C4000070C4004070C40A0
:100AA00028070C402C070C4030070C4038070C403E
:100AB000000D0C40040D0C40280D0C402C0D0C407A
:100AC000300D0C40380D0C4000080C4004080C4060
:100AD00028080C402C080C4030080C4038080C400A
:100AE00000090C4004090C4008090C4028090C407E
:100AF0002C090C4030090C4038090C40000A0C400D
:100B0000040A0C40280A0C402C0A0C40300A0C4005
:100B1000380A0C40000C0C40040C0C40080C0C4033
:100B20000C0C0C40280C0C402C0C0C40300C0C40D5
:100B3000380C0C4000100E4008100E400C100E40F7
:100B400018100E401C100E4010100E4014100E40D5
:100B50001003C2439401C24300120E4008120E401B
:100B60000C120E4018120E401C120E4010120E40B5
:100B700014120E401043C2439441C24318E0804314
:100B80000804002004100E409843C24304120E4093
:100B900004E200E084E200E008ED00E0C001002093
:100BA000037F0020027F0020017F0020007F0020C3
:100BB000DFF800F0E9000020DFF800F085010020F8
:100BC0001FB5002400A8102100F016FB01208DF8AD
:100BD000020000A8E4B20FF2FC5151F8241088473B
:100BE0000400F6E770B504000D000026E4B2002C06
:100BF00005D0022C09D007D3032C0BD00BE0280022
:100C0000FFF7DEFD060008E007E02800FFF7F3FD30
:100C1000060002E001E000BFFDE73000C0B270BD99
:100C200070B504000D001600E4B2002C05D0022CB3
:100C30000AD008D3032C0DD00DE0B6B23100280045
:100C4000FFF7E6FD09E008E0B6B231002800FFF743
:100C5000F1FD02E001E000BFFDE770BD10B402004D
:100C6000002300209BB289B28B4204D21478201852
:100C7000521C5B1CF6E790F05500C0B210BC7047E8
:100C800010B50400200000F074FA012010BD38B542
:100C90000400012500208DF8000000A92078FFF74E
:100CA000A1FF012835D1A088DFF8E4149DF80020C9
:100CB00042542000E17B0FF2345252F82110884751
:100CC000E073E07B042818D12078002812D1DFF8E7
:100CD000C0040079022802D10220050012E0DFF8EA
:100CE000B0040079FF2802D1022005000AE00320A9
:100CF000050007E00420050004E0E07B032801D1A3
:100D000000200500A088401CA080DFF88804A060B7
:100D100007E0A068401EA060A068002801D105205F
:100D200005002800C0B232BD01004878401C487060
:100D300048788A78904201D30020487048780FF2B2
:100D40009042805C08700020704770B50400002558
:100D50000026A078EDB2854211D2EDB20FF27040BC
:100D6000285C0600F6B2002E07D0A289DFF8201416
:100D70003000C0B2FFF754FF26706D1CE9E7002079
:100D800070BD10B50400A289DFF804140020FFF73D
:100D900047FF00202070002010BD10B50400DFF8D0
:100DA000F003C07820282BD040280DD0502819D02F
:100DB00051280FD0862804D089281BD0BE281CD0EB
:100DC00024E000F083F825E0DFF8C403407900F068
:100DD00083F81FE0DFF8C00300F092F8DFF8BC13DF
:100DE000086017E0DFF8B013DFF8B003006800F028
:100DF0009BF80FE000F005F90CE000F00AF909E0BB
:100E0000DFF88C03407900F013F903E0F221FF20B2
:100E100000F070F9200000F0C7F9002010BD38B5CF
:100E200004000025DA480078AA2802D10120050034
:100E300001E003200500200000F0B6F92800C0B250
:100E400032BD010001208A88032A13D3D04A527888
:100E5000CF4B9B7853EA02228A818A89062A07D3DC
:100E60008A894FF484739A4202D20222100001E070
:100E700003221000C0B2704770B50400022500269E
:100E8000A088A189491E88421DDBA089C04940185D
:100E900010F8010CBB2814D1A089811E89B2BC486E
:100EA000FFF7DCFE0600A089B949401810F8020CD3
:100EB000F6B2864202D10420050004E003200500BA
:100EC00001E0032005002800C0B270BD80B50621F6
:100ED000862000F00FF901BD10B50400E4B2FF2C2C
:100EE00005D1FFF7C7FCAE480121017003E0E4B271
:100EF0002000FFF769F90621402000F0FBF810BD43
:100F000038B5040020786178090451EA0060A178BE
:100F100050EA0120E17851EA00050621512000F055
:100F2000E9F8280032BD000038B504000D009C48E7
:100F3000007801280AD04FF48050B4FBF0F101FB97
:100F40001041002902D12000FFF73AF9B4F5A04F73
:100F500002D3B4F5A83F0BD3B4F5283F02D3B4F5C0
:100F60002C3F05D3B4F5AA2F07D3B4F5AC2F04D288
:100F70000621502000F0BEF828E0B4F5002F02D280
:100F8000B4F5804F06D2F521502000F0B3F8FFF7FA
:100F900064FC1BE029002000FFF70AFE00BF00BF31
:100FA00000BF00BF00BF2900200000F010F801289A
:100FB00004D10621502000F09DF807E0F6215020D2
:100FC00000F098F8FFF749FC00BFFDE731BD70B5B0
:100FD00004000D0000264FF4807272492000FFF7D4
:100FE000EBFD4FF4807229006E4800F08FF8012865
:100FF00002D10120060001E0FFF73CFC3000C0B246
:1010000070BD80B50621892000F074F8FFF725FC3B
:1010100001BD00B583B000A80FF2AC110CC90CC023
:1010200008390838052200A9BE2000F01DF807BDC8
:1010300038B504002000C0B200F07BF8050000A81D
:1010400000210160280E8DF80000280C8DF80100A9
:10105000280A8DF8020028008DF80300042200A958
:10106000202000F001F831BD2DE9F041C2B00400AC
:101070000D001600002700A84FF4847100F0BCF8A2
:10108000F6B216F10708AA208DF800001FFA88F8BA
:101090005FEA18208DF8010040468DF802008DF8B7
:1010A000034000208DF80400FFB2F6B2B74207D229
:1010B000FFB200A83818FFB2795D41717F1CF3E7D9
:1010C000B8F1020189B200A8FFF7C8FDFFB200A97C
:1010D000791848717F1CFFB200A83818BB214171F4
:1010E0007F1C424692B200A90020FFF799FD42B052
:1010F000BDE8F08138B504000D008DF800500122E4
:1011000000A92000C0B2FFF7AFFF31BD70B40300EB
:101110000024012092B2944208D2E55C665CB5429C
:1011200002D00025280001E0641CF3E7C0B270BCC7
:10113000704738B504000025E4B22000012808D02B
:1011400002280ED143F6FF71002000F02EF80500B2
:101150000DE05FF400214FF4804000F026F8050018
:1011600005E05FF40021002000F01FF805002800D2
:1011700032BD10B5040040F207120021044800F00F
:101180003EF80020E0730020A0800248A06010BD5F
:1011900000020020F6FF0900050200200C040020D8
:1011A0001004002008030020704710B40200002043
:1011B0001300002905D01C7850FA84F05B1C491EEE
:1011C000F7E780B210BC704703010007370000004A
:1011D00000000000810C00008F0C00009B0D00003F
:1011E0004B0D0000830D0000290D00001F0E0000B4
:1011F000430E0000790E0000002200F00FB870B519
:1012000004000D0016002A003100200000F01EF836
:10121000200070BD62F30F2262F31F4200B513007D
:1012200096469446103928BFA0E80C50FAD85FEAD9
:10123000417C28BF0CC048BF40F8042BC90728BF19
:1012400020F8022B48BF00F8012B00BD62F30F22EB
:1012500062F31F42401810F0030308D0C91A1FD3CD
:10126000DB0748BF00F8012D28BF20F8022D13002E
:1012700030B414461546103928BF20E93C00FAD88E
:10128000490728BF20E90C0048BF40F8042D890019
:1012900028BF20F8022D48BF00F8012D30BC704750
:1012A000C91818BF00F8012DCB0728BF00F8012D81
:1012B000704710B450F8041B81B102681218001D69
:1012C00050F8043BDC0744BFA9F10104E31852F8CD
:1012D000044B43F8044B091FF9D1EBE710BC7047EE
:1012E00048480021016048480068002802D147486A
:1012F000B12101604648006850F47000444908601C
:101300004448F92101604448002101604148062118
:101310000160424800680003000B404908603F48F4
:10132000006850F02C603D4908603D480121016093
:101330003C48012101603C48012101603B480068B4
:101340000028FBD12B48012101602A4800680128B0
:10135000FBD1374800210160304800680003000BD2
:101360002E4908602D48006850F078702B490860BD
:1013700030480068304908402E4908602D48006810
:1013800040F4334050F05C002A49086026480121AF
:101390000160264800680028FBD12048006800034F
:1013A000000B1E4908601D48006850F0FA601B4998
:1013B00008601248012101601B48012101601B489F
:1013C00000680028FBD10C48012101600C485FF443
:1013D000803101600A480068C008C0000849086000
:1013E0000748074909680160144840F20311016089
:1013F00070470000C400E6438001E6438800E643EE
:1014000000300F4000200F401C00E44304200F4038
:1014100088ED00E000100F4004100F4004300F4032
:10142000A000E643CC00E6438000E6438400E643A8
:10143000C000E6430C300F400100FFFF08300F40B2
:1014400080B572B600200068FFF7AEF92048002191
:101450000160FEF7EBFEFEF7F2FE4FF416410020AE
:1014600000F03CF800F00AF8012802D1FFF78EFAEC
:1014700003E000F021F8FFF7A3FB01BD38B500241D
:10148000FFF75EFA01280AD000F012F805005FF4B9
:1014900000210020FFF789FEADB2854203D000F0A5
:1014A00007F8002801D1012004002000C0B232BD9D
:1014B0000848008880B2704710B50024064884426E
:1014C00002D200BF641CF9E70120FFF771F910BDDB
:1014D00008ED00E0F2FF0500E075090038B50400F2
:1014E0000D002800B0F5165F0DD0B0F5964F11D065
:1014F000B0F5164F14D0B0F5614F17D04FF224411C
:10150000884219D01EE04FF496712000C0B200F05E
:101510001AF817E09C212000C0B200F014F811E086
:101520004C212000C0B200F00EF80BE03421200066
:10153000C0B200F008F805E02E212000C0B200F093
:1015400002F8FFE731BD38B504000D00E4B2200019
:10155000002802D0022805D009E0280080B2FEF75A
:10156000DFFF04E0280080B2FFF77CF8FFE731BD21
:1015700070477047704770477047704770477047B3
:1015800070477047704770477047704770477047A3
:101590007047704770477047704770477047704793
:1015A0007047704770477047704770477047704783
:1015B0007047704770477047704770477047704773
:1015C0007047704770477047704770477047704763
:1015D0007047704770477047704770477047704753
:1015E0007047704770477047704770477047704743
:1015F0007047704770477047704770477047704733
:101600007047704770477047704770477047704722
:101610007047704770477047704770477047704712
:101620007047704770477047704770477047704702
:1016300070477047704770477047704710B508494A
:1016400079441C31074C7C441A34A14206D0081D51
:101650000A68511888470146A142F8D110BD00BF61
:101660002C0000004C00000050F8041B61B150F841
:10167000042BD30744BFA9F101039A18002342F8B1
:10168000043B091FFAD1EFE770470000DDFFFFFFC1
:1016900014020000000200200000000017FCFFFF01
:1016A0000002000088000000000000200000000090
:1016B0004EF68851CEF20001086840F470000860D0
:1016C0004FF00070E1EE100A7047000000F009F8DA
:1016D000002801D0FFF7B2FF0020FFF7B1FE00F0B5
:1016E00002F80120704780B500F002F800BF00004A
:1016F0000746384600F002F8FBE7000080B5C04618
:10170000C046024A11001820ABBEFBE726000200CB
:101710000148804701480047E112000021170000FE
:10172000C046C046FFF7C4FFFFF7D0FF2DE9F041E8
:1017300004006A4805006A48060007208046694898
:101740005FFA88F8C0F80080664800685FFA88F899
:101750004045F9D1240B240354F0BC442700F02069
:10176000306000F0B5F8AA20286055203060802055
:101770002860AA202860552030604020387000F092
:10178000A7F80020804657485FFA88F8C0F8008024
:10179000544800685FFA88F84045F9D1BDE8F08107
:1017A0002DE9F04104004D4805004D480600072092
:1017B00080464C485FFA88F8C0F8008049480068C5
:1017C0005FFA88F84045F9D1A40BA40354F0BC4457
:1017D0002700F020306000F07BF8AA202860552018
:1017E000306080202860AA2028605520306030209A
:1017F000387000F06DF8002080463A485FFA88F8AB
:10180000C0F80080374800685FFA88F84045F9D191
:10181000BDE8F0812DE9F84F04000D002F48804607
:101820002F488146240A240254F0BC44A2460020DA
:101830000700102F3ADA072083462A485FFA8BFB0D
:10184000C0F800B0274800685FFA8BFB5845F9D113
:10185000F020C9F8000000F03BF8AA20C8F800000A
:101860005520C9F80000A020C8F80000002006009C
:10187000042E05DA2868CAF800002D1D761CF7E74B
:101880001AF1100A00F024F8F020C9F80000002036
:10189000834614485FFA8BFBC0F800B0114800681B
:1018A0005FFA8BFB5845F9D17F1CC2E7BDE8F18F89
:1018B00030B4040000252B0092B2B3EB920F05D296
:1018C00025680D60241D091D5B1CF5E730BC7047C1
:1018D00005480068C007FBD5704700000054005E53
:1018E00000AA005E4001FF5D2000FF5D00000000D7
:1018F00000800000000001000080010000000200E4
:1019000000800200000003000080030000000400CB
:1019100000800400000005000080050000000600B3
:0C192000008006000000070000800700A7
:104000000822002045200500FDE905001DEA050005
:104010001FEA050021EA050023EA05000000000070
:1040200000000000000000000000000025EA05007C
:1040300027EA05000000000029EA05002BEA050038
:1040400033EA050035EA050037EA05004DEA0500C8
:1040500061EA050063EA050065EA05006FEA05000C
:1040600079EA05007BEA05006D2005007120050056
:104070007DEA05007FEA050081EA050083EA050084
:1040800085EA0500C5EA0500C7EA0500C9EA05009A
:10409000CBEA0500CDEA0500CFEA0500D1EA05002C
:1040A000D3EA0500D5EA0500D7EA0500D9EA0500FC
:1040B000E3EA0500F5EA0500F7EA0500F9EA05007C
:1040C000FBEA0500FDEA0500FFEA050001EB05003B
:1040D00003EB050005EB050007EB050009EB050008
:1040E0000BEB050013EB050075200500792005009A
:1040F0007D200500812005001BEB05001DEB050060
:1041000065EB050067EB050069EB05006BEB05004F
:104110006DEB05006FEB050085200500892005008B
:104120008D2005009120050071EB050073EB050063
:1041300075EB050077EB050095200500992005003B
:1041400079EB05007BEB05007DEB05007FEB0500BF
:1041500081EB050083EB050085EB050087EB05008F
:1041600089EB05008BEB05008DEB05008FEB05005F
:1041700091EB050093EB05009D200500A1200500B3
:1041800095EB0500000000000000000000000000AA
:104190009DEB05009FEB0500A5200500A92005006B
:1041A000AD200500119C0200159C0200199C020024
:1041B0001D9C0200219C0200259C0200299C0200FB
:1050000081B000A900220A8001788DF80010417853
:105010008DF801109DF800109DF80120914202D0FA
:105020007049714A0A6001B0704781B000A900223E
:105030000A600188ADF800104188ADF80210BDF893
:105040000010BDF80220914202D06649664A0A600B
:1050500001B070472DE9F04104000D0016001F005B
:10506000E4B22000002826D0012827D0022828D02A
:10507000032829D004282AD005282BD006282CD094
:1050800007282DD008282ED009282FD00A2830D064
:105090000B2831D00C2832D00D2833D00E2834D034
:1050A0000F2835D0102836D0112837D0122838D004
:1050B000142839D03BE04D4880463AE04C488046C1
:1050C00037E04C48804634E04B48804631E04B485E
:1050D00080462EE04A4880462BE04A48804628E039
:1050E0004948804625E04948804622E048488046B5
:1050F0001FE0484880461CE04748804619E0474882
:10510000804616E04648804613E04648804610E058
:10511000454880460DE0454880460AE044488046C0
:1051200007E04448804604E04348804601E04348A5
:105130008046EDB2012D08D1FFB2012F02D14046C9
:10514000FFF75EFF98F8000004E088F8006088F838
:1051500001600020BDE8F0812DE9F04104000D0060
:1051600016001F00E4B22000152810D0162811D018
:10517000172812D0182813D0192814D01A2815D09F
:105180001C2816D01D2817D12D48804616E02D4822
:10519000804613E02C48804610E02C4880460DE005
:1051A0002B4880460AE02B48804607E02A48804684
:1051B00004E02A48804601E029488046EDB2012DEE
:1051C00008D1FFB2012F02D14046FFF72EFFB8F8F9
:1051D000000004E0A8F80060A8F802600020BDE824
:1051E000F08100000CED00E00407FA0538220020F1
:1051F0003A2200203C2200203E22002040220020B3
:105200004222002044220020462200204822002082
:105210004A2200204C2200204E2200205022002052
:105220005222002014220020542200205622002066
:10523000582200205A2200205E2200205C220020FA
:1052400034220020182200201C22002020220020CE
:1052500024220020282200201022002030220020BA
:105260002C22002010B5002401200BF0B5FF0021F6
:10527000012000F04FFD0400E4B2002C16D0002302
:105280002200D2B200210620FFF7E4FE0023002214
:1052900000210720FFF7DEFE012009F021FF00209A
:1052A00009F029FF0021002000F034FD0021012039
:1052B00000F03BFD012809D100230022002103203A
:1052C000FFF7C8FE0021002000F02FFD0021012083
:1052D00000F036FD012809D10023002200210C2016
:1052E000FFF7B8FE0021002000F02AFD0021012078
:1052F00000F031FD040000232200D2B200210D2075
:10530000FFF7A8FE0021012000F021FE01280FD1A7
:105310000023002200211020FFF79CFE0023002222
:1053200000211220FFF796FE0021002000F00FFE62
:105330000021012000F016FE040000232200D2B25A
:1053400000211320FFF786FE002300220121042004
:10535000FFF780FE01280AD100230022002114203B
:10536000FFF778FE0021002000F000FD0BE0002197
:10537000012000F0FBFC040000232200D2B2002137
:105380001420FFF767FE10BD0300C9B2012901D147
:10539000187801E01A70002070470000000000003B
:1053A00000000000DFF8DC1908607047DFF8D8194A
:1053B00008607047DFF8D41908607047DFF8D0192B
:1053C00008607047F8B50024002500260027022059
:1053D0000BF002FF09F09AFE012817D100230022EA
:1053E00000210220FFF736FE0123002201210120C7
:1053F000FFF730FE0400E4B2FF2C1ED20023621C33
:10540000D2B200210120FFF725FE16E00023002282
:1054100000210120FFF71EFE0123002201210220AE
:10542000FFF718FE0500EDB2FF2D06D200236A1C1F
:10543000D2B200210220FFF70DFE09F06BFE012819
:1054400019D10023002200211520FFF785FE01233A
:10545000002201211620FFF77FFE07004FF4C870DD
:10546000BFB2874220D200237A1C92B200211620BC
:10547000FFF772FE18E00023002200211620FFF73C
:105480006BFE0123002201211520FFF765FE0600B7
:105490004FF4C870B6B2864206D20023721C92B294
:1054A00000211520FFF758FEF1BD70B5002400253E
:1054B000002604200BF090FE012300220121012090
:1054C000FFF7C8FD04000123002201210220FFF79D
:1054D000C1FD05000123002201210320FFF7BAFDD1
:1054E0000600E4B2FF2C02D0EDB2FF2D06D100235E
:1054F000012200210020FFF7ADFD28E0F6B2F00701
:105500000BD5E4B2032C13D3761C00233200D2B2A5
:1055100000210320FFF79EFD0AE0EDB2032D07D323
:10552000761C00233200D2B200210320FFF792FD47
:10553000F6B20E2E0BD30023002200210320FFF72A
:1055400089FD0023022200210020FFF783FD70BDAA
:1055500070B500240025002608200BF03DFE012335
:10556000002201211520FFF7F7FD0500012300228D
:1055700001211620FFF7F0FD06004FF4C870B6B207
:10558000864204D24FF4C870ADB2854206D30023E0
:10559000012200210420FFF75DFD2FE001230022FE
:1055A00001210520FFF756FD0400E4B2E0070BD50A
:1055B000B6B2032E13D3641C00232200D2B2002102
:1055C0000520FFF747FD0AE0ADB2032D07D3641CA9
:1055D00000232200D2B200210520FFF73BFDE4B2F8
:1055E0000E2C0BD30023002200210520FFF732FDF3
:1055F0000023022200210420FFF72CFD70BD80B59E
:105600000123002201210720FFF724FD03282FD0CA
:10561000042838D00123002201210020FFF71AFDC1
:10562000022810D10123002201211720FFF794FD49
:1056300040F29111884206D3002304220021072062
:10564000FFF708FD13E00123002201210020FFF7EE
:1056500001FD01280BD10023032200210720FFF7C1
:10566000F9FC0023002200210820FFF7F3FC0DE0E5
:1056700000F0B9FA012805D10023042200210720F7
:10568000FFF7E8FC02E0012009F02AFD01BD80B52A
:105690000123002201210020FFF7DCFC012806D1B4
:1056A0000023022200210720FFF7D4FC17E001238A
:1056B000002201210020FFF7CDFC02280FD100F0CD
:1056C000A4F801280BD10023012200210720FFF7B5
:1056D000C1FC0023002200210820FFF7BBFC01BD14
:1056E00080B50123002201210720FFF7B3FC012828
:1056F00006D002D3032834D00DD3FFF7C8FF3AE019
:1057000000F004FA012805D100230222002107201D
:10571000FFF7A0FC2FE000F0E1F801280CD10023F6
:10572000032200210720FFF795FC0023002200211F
:105730000820FFF78FFC13E0012300220121002045
:10574000FFF788FC02280BD100230022002107204C
:10575000FFF780FC0023002200210820FFF77AFCDD
:1057600009E000F040FA012805D1002300220021C1
:105770000720FFF76FFC01BD38B5040000250123A9
:10578000002201212000C0B2FFF7E6FC0500ADB207
:10579000681C4FF6FF71884201DA6D1C01E04FF67C
:1057A000FF7500232A0092B200212000C0B2FFF74B
:1057B000D3FC31BD80B51820FFF7DEFF1720FFF7BF
:1057C000DBFF1920FFF7D8FF01BD10B50024102022
:1057D0000BF002FDFFF7EEFF01230022012106205E
:1057E000FFF738FC0400E4B2022C02D1FFF707FFF8
:1057F0000AE0E4B2012C07D1FFF772FF0023002278
:1058000000211720FFF7A8FC10BDF8B5DFF87405DC
:105810000068804705000123002201210E20FFF7C8
:1058200019FC06000020DFF86415096888470700A6
:10583000ADB20B2D02D3002004004CE0DFF8500580
:1058400000688047012802D10020040043E0DFF80F
:10585000380500688047002802D1002004003AE0A3
:1058600000F03CF8012802D10020040033E00123BD
:10587000002201210920FFF7EDFB01280BD10020B8
:105880000400F6B2E82E26D30023002200210920CE
:10589000FFF7E0FB1FE00123002201210A20FFF7B0
:1058A000D9FB012815D100200400F6B2FA2E06D348
:1058B0000023002200210A20FFF7CCFB0BE0FFB2FF
:1058C000292F08D20023002200210A20FFF7C2FB63
:1058D00001E0012004002000C0B2F2BD70B5012338
:1058E000002201210E20FFF7B5FB05000020DFF8A4
:1058F0009C14096888470600EDB2E62D08D2002303
:10590000012200210920FFF7A5FB0120040010E07F
:10591000F6B22D2E0BD3EDB2FA2D08D200230122C0
:1059200000210A20FFF796FB0120040001E000207F
:1059300004002000C0B270BD80B501230022012107
:105940000D20FFF787FB002817D10023012200213B
:105950000820FFF77FFB0023002200211820FFF71B
:10596000FBFB0023002200210B20FFF773FB01202B
:1059700009F0B6FB002009F0BEFB01BD80B5012394
:10598000002201211820FFF7E7FB32280ED3002365
:10599000002200211820FFF7DFFB00230322002153
:1059A0000820FFF757FB002009F0A5FB01BD70B5EB
:1059B00004000D0000260123002201211820FFF71A
:1059C000CBFBA4B2B0EB440F37DB00230022002155
:1059D0001820FFF7C1FB0123002201210B20FFF754
:1059E00039FB0600761C00233200D2B200210B20C6
:1059F000FFF730FB3000C0B200F03BF9012806D1C0
:105A00000023042200210820FFF724FB31E0F007E7
:105A100009D40023012200210820FFF71BFB0020EE
:105A200009F069FB25E00023022200210820FFF78E
:105A300011FB012009F05FFB1BE0EDB2012D07D146
:105A40000123002201210020FFF704FB01280AD0D6
:105A5000EDB2022D0DD10123002201210020FFF71C
:105A6000F9FA022805D10023042200210820FFF7BB
:105A7000F1FA70BD10B500240123002201210B2092
:105A8000FFF7E8FA00280FD1012300220121192095
:105A9000FFF762FB42F21071884202D20520040037
:105AA00004E00020040001E00320040001230022A0
:105AB00001211820FFF750FBE4B24FF4FA6101FB1B
:105AC00004F188420FDB0023002200211820FFF799
:105AD00043FB0023022200210820FFF7BBFA01202C
:105AE00009F009FB11E00123002201210020FFF74A
:105AF000B1FA012803D0FFF7F1FE012805D10023F8
:105B0000042200210820FFF7A5FA10BD38B50123B3
:105B1000002201210E20FFF79DFA0500002004005D
:105B20000123002201210820FFF794FA002806D063
:105B300002280AD006D3042810D009D317E0FFF7B3
:105B4000FBFE1AE0FFF796FF17E0FFF717FF14E0E0
:105B500001214FF4FA70FFF72AFF0EE00023002224
:105B600000210820FFF776FA0120040005E0002359
:105B7000002200210820FFF76DFA2000C0B232BDDC
:105B800010B500240123002201210B20FFF762FA47
:105B9000002802D10520040001E0032004000123B5
:105BA000002201211820FFF7D7FA4FF4FA6101FB18
:105BB00004F1884216D30023002200211820FFF7A9
:105BC000CBFA0023022200210820FFF743FA012329
:105BD000002201210020FFF73DFA012802D1012017
:105BE00009F089FA10BD38B5002500200400012015
:105BF00009F076FA0123002201210820FFF72AFA92
:105C0000002806D002280AD006D304281FD009D3C2
:105C100026E0FFF791FE29E0FFF7B2FF26E0FFF74D
:105C2000ADFE23E00123002201210B20FFF712FA31
:105C3000032803D14FF4FA60050002E04FF4FA7034
:105C400005000221280080B2FFF7B1FE0EE000231C
:105C5000002200210820FFF7FDF90120040005E0E3
:105C60000023002200210820FFF7F4F92000C0B231
:105C700032BD38B504000025E4B2062C07D301205C
:105C800005000023012200210C20FFF7E3F9280082
:105C9000C0B232BD80B50023002201210020FFF7F1
:105CA000D9F902BD80B50023002201210420FFF7AD
:105CB000D1F902BD80B50023002201210120FFF7A8
:105CC000C9F902BD80B50023002201210220FFF79F
:105CD000C1F902BD80B50023002201210C20FFF78D
:105CE000B9F902BD80B50023002201210720FFF78A
:105CF000B1F902BD80B50023002201210620FFF783
:105D0000A9F902BD80B50023002201211420FFF76C
:105D1000A1F902BD38B504000D002A00D2B221005D
:105D2000C9B21C48FFF730FB32BD38B504000D0086
:105D30002A00D2B22100C9B21748FFF725FB32BDB5
:105D400038B504000D002A00D2B22100C9B21348B0
:105D5000FFF71AFB32BD38B504000D002A00D2B29D
:105D60002100C9B20E48FFF70FFB32BD38B5040061
:105D70000D002A00D2B22100C9B20A48FFF704FB85
:105D800032BD000060220020642200206822002032
:105D90006C2200207022002071220020722200203C
:105DA000732200207422002074490860704770B587
:105DB000002400250123002201211B20FFF7CCF93C
:105DC000060020200BF008FA761CB6B2B6F5FA6F82
:105DD00033D1002006000123002201211320FFF708
:105DE00039F9012817D1664809F093FE3230642151
:105DF00090FBF1F00500624809F061FE4FF48070FD
:105E0000ADB2854202D3FF20040001E02800040067
:105E100000F01BF803E0FF200500FF200400002332
:105E20002200D2B200210E20FFF714F900232A002D
:105E300092B200211A20FFF78FF90023320092B2AC
:105E400000211B20FFF788F970BD70B501230022E7
:105E500001210F20FFF7FEF8060001230022012197
:105E60001120FFF7F7F804000123002201211A2076
:105E7000FFF772F905000123002201211020FFF72E
:105E8000E9F8012807D00123002201211220FFF7A1
:105E9000E1F8012804D100200400002006002FE0D2
:105EA000ADB2652D04D34FF49670ADB285420DD3DB
:105EB000F6B20A2E01D2761C22E000230122002134
:105EC0001020FFF7C7F80020060019E0ADB2D62D6C
:105ED00012D22A480068804764280DD2E4B2032C0D
:105EE00001D2641C0CE00023012200211220FFF7E4
:105EF000B1F80020040003E00020040000200600A8
:105F000000233200D2B200210F20FFF7A3F80023B4
:105F10002200D2B200211120FFF79CF870BD80B59D
:105F20000023002201210E20FFF794F802BD80B566
:105F30000023002201211020FFF78CF802BD80B55C
:105F40000023002201211220FFF784F802BD38B59A
:105F500004000D002A00D2B22100C9B20948FFF79F
:105F600013FA32BD38B504000D002A00D2B2210068
:105F7000C9B20548FFF708FA32BD000078220020B8
:105F800000410C407C2200207D22002080B50BF0D7
:105F90001BF9FFF767F9FFF715FAFFF786FAFFF726
:105FA000D7FAFFF712FCFFF702FF0BF027F901BD4C
:105FB000DFF82C1D08607047DFF8281D0860704767
:105FC000DFF8241D08607047DFF8201D0860704767
:105FD000DFF81C1D08607047DFF8181D0860704767
:105FE000DFF8141D08607047DFF8101D0860704767
:105FF000DFF80C1D08607047DFF8081D0860704767
:10600000DFF8041D08607047DFF8001D0860704766
:10601000DFF8FC1C08607047DFF8F81C0860704768
:10602000DFF8F41C08607047DFF8F01C0860704768
:10603000DFF8EC1C08607047DFF8E81C0860704768
:10604000DFF8E41C08607047DFF8E01C0860704768
:10605000DFF8DC1C08607047DFF8D81C0860704768
:10606000DFF8D41C08607047DFF8D01C0860704768
:10607000DFF8CC1C08607047DFF8C81C0860704768
:10608000DFF8C41C08607047DFF8C01C0860704768
:10609000F8B50400DFF8B85C07F0E4FBDFF8B46C97
:1060A000368856F00206DFF8AC7C3E8026880A2748
:1060B0007E43310066880A277E433200A688462741
:1060C0007E43361133000678012E40F08B8095F820
:1060D0006061012E40F08680A679012E0FD1DFF895
:1060E000786C3280DFF8706CB6F900603604DFF847
:1060F0006C7C3E60DFF8686C0127376061E0DFF898
:10610000606C3668012E51D18A4220DADFF8486C83
:10611000B6F900608E420BDBDFF83C6C3180DFF8B3
:10612000386CB6F900603604DFF8307C3E6048E039
:10613000DFF8286C36689E19DFF8207C3E60DFF8B7
:106140001C6C36683614DFF8107C3E8039E09142D2
:1061500020DADFF8046CB6F90060B1420BDBDFF83F
:10616000F86B3180DFF8F06BB6F900603604DFF8C9
:10617000EC7B3E6025E0DFF8E46B3668F61ADFF86A
:10618000DC7B3E60DFF8D46B36683614DFF8C87B02
:106190003E8016E0DFF8C06B3280DFF8BC6BB6F9EA
:1061A00000603604DFF8B47B3E600AE0DFF8A86BDD
:1061B0003280DFF8A46BB6F900603604DFF89C7B10
:1061C0003E60AE7B002E05D1DFF88C6B3688A5F8DB
:1061D000546016E0DFF8806BB6F900607642A5F8EF
:1061E00054600EE0DFF8706B00273780DFF86C6BCF
:1061F00000273760DFF8686B00273760002685F8D6
:106200006061F1BDF8B5DFF8484B07F02BFB0500E6
:1062100008F04CFF060007F029FB00210022B4F92A
:106220005430002B02D4B4F9543002E0B4F95430A5
:106230005B42A4F84C30B4F94C3043F2C827BB425F
:1062400002DB07231A002EE0B4F94C3042F6F8279F
:10625000BB4202DB06231A0025E0B4F94C3042F2BF
:106260002837BB4202DB05231A001CE0B4F94C308E
:1062700041F29417BB4202DB04231A0013E0B4F985
:106280004C3040F24C47BB4202DB03231A000AE0C9
:10629000B4F94C3040F2EE27BB4202DB02231A0075
:1062A00001E001231A00D2B2012A10D0C0F090847C
:1062B000032A00F06E82C0F01E81052A00F08A8356
:1062C000C0F0FB82062A00F0038400F081BC037951
:1062D000002B35D12378C027DFF888CA07FB03C31A
:1062E0009B69C4F8B4312378C027DFF878CA07FB6C
:1062F00003C3DB69C4F8B8312378C027DFF864CA68
:1063000007FB03C31B6AC4F8BC312378C027DFF83E
:1063100054CA07FB03C35B6AC4F8C0312378C027A3
:10632000DFF840CA07FB03C39B6AC4F8C431237873
:10633000C027DFF830CA07FB03C3DB6AC4F8C831E3
:10634000A36CE76DB4F95AC00CFB1733190023781E
:106350003027DFF814CA07FB03C31B69B4F95A706E
:1063600007FB0313A36423783027DFF8FCC907FB7E
:1063700003C31B69E36523783027DFF8ECC907FB0B
:1063800003C35B69236623783027DFF8DCC907FB8A
:1063900003C39B6963660023C4F83431B379012BCE
:1063A00002D06B79012B5ED1B4F9C830C82B3DDA2D
:1063B00094F81032022B1CD2B4F8683127785FF0C1
:1063C000180CDFF8A8E90CFB07E77F887B435B121A
:1063D000C4F81831B4F8683127785FF0180CDFF88A
:1063E0008CE90CFB07E73F887B431B11C4F81C3189
:1063F00078E0B4F8683127785FF0180CDFF86CE9C2
:106400000CFB07E7FF887B435B12C4F81831B4F834
:10641000683127785FF0180CDFF850E90CFB07E7CC
:10642000BF887B431B11C4F81C315BE0B4F86831B2
:1064300027785FF0180CDFF834E90CFB07E77F8959
:106440007B435B12C4F81831B4F8683127785FF0E9
:10645000180CDFF818E90CFB07E73F897B431B1199
:10646000C4F81C313EE0B4F9C8304FF49677BB4213
:106470001CDAB4F8683127785FF0180CDFF8ECE824
:106480000CFB07E77F887B435B12C4F81831B4F834
:10649000683127785FF0180CDFF8D0E80CFB07E7CD
:1064A0003F887B431B11C4F81C311BE0B4F86831F2
:1064B00027785FF0180CDFF8B4E80CFB07E77F895A
:1064C0007B435B12C4F81831B4F8683127785FF069
:1064D000180CDFF898E80CFB07E73F897B431B119A
:1064E000C4F81C3123783027DFF87CC807FB03C3CE
:1064F0009B8BA383EBE30379002B35D12378C02753
:10650000DFF860C807FB03C31B6BC4F8B431237802
:10651000C027DFF850C807FB03C35B6BC4F8B83172
:106520002378C027DFF83CC807FB03C39B6BC4F884
:10653000BC312378C027DFF82CC807FB03C3DB6B13
:10654000C4F8C0312378C027DFF818C807FB03C39D
:106550001B6CC4F8C4312378C027DFF808C807FBD8
:1065600003C35B6CC4F8C831AB78002B2FD194F80F
:10657000FC31002B2BD1A36CE76DB4F95AC00CFB96
:106580001733190023783027DFF8DCC707FB03C374
:106590001B6AB4F95A7007FB0313A36423783027EE
:1065A000DFF8C4C707FB03C31B6AE3652378302702
:1065B000DFF8B4C707FB03C35B6A23662378302781
:1065C000DFF8A4C707FB03C39B6A636631E0B4F935
:1065D0004C30B4F8BC70323FBB422ADBA36CE76D91
:1065E000B4F95AC00CFB1733190023783027DFF8B1
:1065F00078C707FB03C31B68B4F95A7007FB031382
:10660000A36423783027DFF860C707FB03C31B6848
:10661000E36523783027DFF850C707FB03C35B68C7
:10662000236623783027DFF840C707FB03C39B6846
:1066300063660023C4F83431B379012B02D06B793F
:10664000012B5ED1B4F9C830C82B3DDA94F8103272
:10665000022B1CD2B4F8683127785FF0180CDFF8F1
:106660000CE70CFB07E77F887B435B12C4F818310B
:10667000B4F8683127785FF0180CDFF8F0E60CFB0F
:1066800007E73F887B431B11C4F81C3178E0B4F85E
:10669000683127785FF0180CDFF8D0E60CFB07E7CD
:1066A000FF887B435B12C4F81831B4F8683127784F
:1066B0005FF0180CDFF8B4E60CFB07E7BF887B43FC
:1066C0001B11C4F81C315BE0B4F8683127785FF027
:1066D000180CDFF898E60CFB07E77F897B435B1219
:1066E000C4F81831B4F8683127785FF0180CDFF877
:1066F0007CE60CFB07E73F897B431B11C4F81C3188
:106700003EE0B4F9C8304FF49677BB421CDAB4F8D7
:10671000683127785FF0180CDFF850E60CFB07E7CC
:106720007F887B435B12C4F81831B4F8683127784E
:106730005FF0180CDFF834E60CFB07E73F887B437B
:106740001B11C4F81C311BE0B4F8683127785FF0E6
:10675000180CDFF818E60CFB07E77F897B435B1218
:10676000C4F81831B4F8683127785FF0180CDFF8F6
:10677000FCE50CFB07E73F897B431B11C4F81C3188
:1067800023783027DFF8E0C507FB03C39B89A38389
:106790009DE20379002B35D12378C027DFF8C4C5EB
:1067A00007FB03C39B6CC4F8B4312378C027DFF820
:1067B000B4C507FB03C3DB6CC4F8B8312378C0272A
:1067C000DFF8A0C507FB03C31B6DC4F8BC312378F9
:1067D000C027DFF890C507FB03C35B6DC4F8C03169
:1067E0002378C027DFF87CC507FB03C39B6DC4F883
:1067F000C4312378C027DFF86CC507FB03C3DB6D0A
:10680000C4F8C831B4F94C30B4F8BC70323FBB4264
:106810002ADBA36CE76DB4F95AC00CFB17331900DF
:1068200023783027DFF840C507FB03C31B68B4F9A2
:106830005A7007FB0313A36423783027DFF828C5B9
:1068400007FB03C31B68E36523783027DFF818C50F
:1068500007FB03C35B68236623783027DFF808C58E
:1068600007FB03C39B68636640F27F33C4F834318F
:10687000B4F8683127785FF0180CDFF8F0E40CFB0F
:1068800007E7FF897B435B12C4F81831B4F868311D
:1068900027785FF0180CDFF8D4E40CFB07E7BF891A
:1068A0007B431B11C4F81C3123783027DFF8B8C4B0
:1068B00007FB03C39B89A38309E20379002B35D12E
:1068C0002378C027DFF89CC407FB03C31B6EC4F802
:1068D000B4312378C027DFF88CC407FB03C35B6E99
:1068E000C4F8B8312378C027DFF878C407FB03C3A6
:1068F0009B6EC4F8BC312378C027DFF868C407FB5F
:1069000003C3DB6EC4F8C0312378C027DFF854C45A
:1069100007FB03C31B6FC4F8C4312378C027DFF81B
:1069200044C407FB03C35B6FC4F8C831A36CE76DB5
:10693000B4F95AC00CFB1733190023783027DFF85D
:1069400028C407FB03C31B6AB4F95A7007FB03137F
:10695000A36423783027DFF810C407FB03C31B6A46
:10696000E36523783027DFF800C407FB03C35B6AC5
:10697000236623783027DFF8F0C307FB03C39B6A45
:10698000636640F28C43C4F83431B4F86831277838
:106990005FF0180CDFF8D4E30CFB07E77F8A7B433A
:1069A0005B12C4F81831B4F8683127785FF0180C1E
:1069B000DFF8B8E30CFB07E73F8A7B431B11C4F801
:1069C0001C3123783027DFF8A0C307FB03C39B8D5E
:1069D000A3837CE10379002B39D12378C027DFF82A
:1069E00084C307FB03C39B6FC4F8B4312378C0276B
:1069F000DFF870C307FB03C3DB6FC4F8B83123783B
:106A0000C027DFF860C307FB03C3D3F88030C4F8A6
:106A1000BC312378C027DFF84CC307FB03C3D3F88E
:106A20008430C4F8C0312378C027DFF838C307FBAF
:106A300003C3D3F88830C4F8C4312378C027DFF803
:106A400024C307FB03C3D3F88C30C4F8C8312378C0
:106A50003027DFF814C307FB03C31B6AE365237801
:106A60003027DFF804C307FB03C35B6A2366237880
:106A70003027DFF8F4C207FB03C39B6A636640F26A
:106A80008C43C4F83431B4F8683127785FF0180CBF
:106A9000DFF8D8E20CFB07E77F8A7B435B12C4F880
:106AA0001831B4F8683127785FF0180CDFF8BCE2D1
:106AB0000CFB07E73F8A7B431B11C4F81C3123788A
:106AC0003027DFF8A4C207FB03C39B8DA383FEE03E
:106AD0000379002B3BD12378C027DFF888C207FB5E
:106AE00003C3D3F89030C4F8B4312378C027DFF85B
:106AF00074C207FB03C3D3F89430C4F8B8312378C9
:106B0000C027DFF860C207FB03C3D3F89830C4F88E
:106B1000BC312378C027DFF84CC207FB03C3D3F88E
:106B20009C30C4F8C0312378C027DFF838C207FB97
:106B300003C3D3F8A030C4F8C4312378C027DFF8EA
:106B400024C207FB03C3D3F8A430C4F8C8312378A8
:106B50003027DFF814C207FB03C31B6AE365237801
:106B60003027DFF804C207FB03C35B6A2366237880
:106B70003027DFF8F4C107FB03C39B6A636640F26A
:106B80008C43C4F83431B4F8683127785FF0180CBE
:106B9000DFF8D8E10CFB07E77F8A7B435B12C4F880
:106BA0001831B4F8683127785FF0180CDFF8BCE1D1
:106BB0000CFB07E73F8A7B431B11C4F81C31237889
:106BC0003027DFF8A4C107FB03C39B8DA3837EE0BE
:106BD0000379002B3BD12378C027DFF888C107FB5E
:106BE00003C3D3F8A830C4F8B4312378C027DFF842
:106BF00074C107FB03C3D3F8AC30C4F8B8312378B1
:106C0000C027DFF860C107FB03C3D3F8B030C4F876
:106C1000BC312378C027DFF84CC107FB03C3D3F88E
:106C2000B430C4F8C0312378C027DFF838C107FB7F
:106C300003C3D3F8B830C4F8C4312378C027DFF8D1
:106C400024C107FB03C3D3F8BC30C4F8C831237890
:106C50003027DFF814C107FB03C31B6AE365237801
:106C60003027DFF804C107FB03C35B6A2366237880
:106C70003027DFF8F4C007FB03C39B6A636640F26A
:106C80008C43C4F83431B4F8683127785FF0180CBD
:106C9000DFF8D8E00CFB07E77F8A7B435B12C4F880
:106CA0001831B4F8683127785FF0180CDFF8BCE0D1
:106CB0000CFB07E73F8A7B431B11C4F81C31237888
:106CC0003027DFF8A4C007FB03C39B8DA383D4F850
:106CD0001831B4F86C71DB1BC4F82031F1BD000031
:106CE00094100020981000209C100020A01000207C
:106CF000A4100020A8100020AC100020B410002028
:106D0000B0100020B8100020BC100020C0100020DF
:106D1000C4100020C8100020CC100020D01000208B
:106D2000D4100020D8100020DC100020E01000203B
:106D3000E4100020E8100020EC100020F0100020EB
:106D4000F4100020F8100020FC100020001100209A
:106D50000C0E002028110020321100200811002004
:106D60000411002028F4000028F70000E8F70000D4
:106D70002DE9F04F85B0DFF8684ADFF83409049058
:106D8000DFF83059DFF830090390DFF8300902905E
:106D900006F066FD060006F065FD070008F086F9BE
:106DA000804606F063FD81460020ADF804005FF0E8
:106DB000000A5FF0000BDFF8080900210180DFF80E
:106DC00004090078012818D1DFF8FC080068804722
:106DD00020702078042804D3DFF8F008DFF8F018DA
:106DE000016004F04FFD04F083FC04F037FF04F071
:106DF00059FFDFF8D00800210170DFF8D8080068DB
:106E00008047DFF8D4180978C0B2884209D00298C8
:106E100001210170DFF8BC0800688047DFF8B8186E
:106E2000087006F028FDDFF8B4180978C0B288426F
:106E300010D0DFF8AC0800210170DFF8A8080021AD
:106E40000170DFF8A4080021017006F014FDDFF8DE
:106E50008C18087000F0CFFB280005F0E1FD05F06C
:106E600005FC03F0BFFA05F0F4FD606B401C6063A5
:106E7000A06B401CA063E06B401CE063206C401CD6
:106E800020643078012835D105F088FC280005F011
:106E90001CFDE06B95281CD30020E06302F020FB72
:106EA00004F0FAF894F85302002806D194F854023A
:106EB000002802D104F010F807E0DFF80408008889
:106EC00050F02000DFF8F8170880012084F81A023B
:106ED00007E0DFF8EC07008850F02000DFF8E0174B
:106EE000088005F071FD03F0C5FC002060810020E2
:106EF00020810FE0DFF8C807008850F02000DFF89D
:106F0000C017088004F023FB94F85502002801D133
:106F100004F0EEFB2800FFF7BBF8DFF8D0070068AD
:106F20008047012833D1B4F9540000280FD194F8D8
:106F3000E40101280BD1A07B002804D14FF4E670B6
:106F4000A4F8540003E0DFF8A807A4F85400B4F84C
:106F500086000090B4F9DA30B4F9C820B4F98E1183
:106F60003878DFF890C7DCF800C0E047B4F93C019E
:106F70000090B4F91231B4F91021B4F99211D4F897
:106F80002C01DFF874C7DCF800C0E04723E0B4F957
:106F90009211B4F99001DFF8642712689047B4F8B1
:106FA000BC20B4F826117878DFF854371B6898476E
:106FB000DFF850070068804701280CD1B4F9DA30B7
:106FC000B4F9C820B4F98E11D4F82C01DFF838C711
:106FD000DCF800C0E04799F80E00DFF830170978B8
:106FE000884207D005F0C0FC99F80E00DFF81C17A6
:106FF00008701AE0DFF8180700688047DFF81417F8
:107000000978C0B2884210D04FF4C060A4F87C0068
:10701000642009F0ACFB012084F85402DFF8F0068C
:1070200000688047DFF8EC16087094F854020128D5
:1070300023D102F0F7FE03988079012804D10220C1
:1070400009F095FB05F01AF9DFF87406008850F096
:107050000400DFF86C160880DFF86406008850F042
:107060000800DFF85C160880DFF85406008850F04E
:107070001000DFF84C160880BAE103F035F8B4F8D8
:107080008000A4F87C01B4F98200B4F98410401A9D
:1070900044F6E6114843C013A4F87E0194F8530265
:1070A000012836D1208A002819D0208A401E20824B
:1070B0004FF4FA634FF4FA624FF4FA61642009F076
:1070C00074FB03988079012805D1022009F04FFB59
:1070D00005F0D4F80CE0032009F049FB08E000209B
:1070E00084F85302012009F042FB012084F8ED01ED
:1070F000DFF8CC05008850F00800DFF8C4150880E0
:10710000DFF8BC05008850F01000DFF8B4150880E7
:107110006EE1FFF777F894F8ED0100281FD199F898
:107120000000012814D199F83E00DFF8EC15097829
:1071300088420AD099F84210B9F8400004F0C8FE1D
:1071400099F83E00DFF8D015087000F01BFF01E051
:1071500000F0E4FAB4F82801A4F8260117E094F846
:10716000EA0101280BD1B4F8E601A4F82601B4F82D
:10717000E60180304004400CA4F8E60103E001F091
:1071800041FC04F017FFB4F8260102F0FFFDB4F94A
:107190007A00B4F97C11B4F97820B4F97E315A43FD
:1071A00001FB0020C013ADF80400B4F978004042A0
:1071B000B4F97C11B4F97A20B4F97E315A4301FB59
:1071C0000020C0138246D4F88401B4F98011B4F9C8
:1071D0008C21891A44F2560202FB0100C4F8840192
:1071E000BDF80400A4F88001D4F884010014A4F8C8
:1071F0008C01D4F88801B4F98211B4F98E21891A6E
:1072000044F2560202FB0100C4F88801A4F882A1EE
:10721000D4F888010014A4F88E01B4F8C800A4F8CA
:10722000BC0094F83902012810D1DFF894040088DA
:1072300050F00800DFF888140880DFF88404008824
:1072400050F01000DFF878140880D1E004F091F9D4
:107250003878012840F0C080B4F8C600A4F8560081
:10726000E07901281CD1B4F9560000042065B4F877
:107270005600A4F85800B4F85600A4F85A00DFF8F5
:107280004004008850F00800DFF834140880DFF86C
:107290003004008850F01000DFF824140880A7E0C4
:1072A00094F8ED01002841D194F8FC01002835D173
:1072B00094F84400401C84F8440094F844000228E8
:1072C0000DD394F85502002809D1002084F8440019
:1072D0000498807800281DD102F030F81AE0206D63
:1072E000B4F95810B4F95A20891A40F2252202FB49
:1072F00001002065B4F85600A4F85800206D001471
:10730000A4F85A00B4F95A0042F28E11484300140E
:10731000A4F8640105F052F801F0A8FCDFF8A0031E
:10732000008850F00800E64908801DE001F07DFD6E
:1073300094F8EA01012812D1B4F82601403840043B
:10734000400C02F023FD01F09FFFC020A4F864016F
:10735000DB48008850F00800D949088004E001F0BB
:1073600004FE0020A4F86401B4F82601B4F9641105
:1073700008184004400C02F009FDB4F97A00B4F991
:10738000A8114843B4F97810B4F9AA2102FB1100FE
:10739000C0136080B4F97800B4F9A811B4F97A2068
:1073A000B4F9AA315A4301FB0020C013A08002980F
:1073B0000078012809D14FF47A734FF47A724FF4B0
:1073C0007A71642009F0F1F901E002F0DDF801F0D2
:1073D000D1FB02F055F80BE0B948008850F00800E6
:1073E000B7490880B648008850F01000B4490880BA
:1073F0006078401C60706078062801D300206070BF
:107400006078DFF86C1B086002F071FF02F0B0FBDF
:1074100004F0EAF8A079012821D1B4F99401B4F973
:107420008C11B4F99621B4F98E315A4301FB002036
:1074300080128346D4F8CC01D4F8D011D4F8D421EA
:10744000891A40F2252202FB0100C4F8CC01C4F8DD
:10745000D0B1D4F8CC010014C4F8D40108E0002065
:10746000C4F8D4010020C4F8CC010020C4F8D00135
:10747000DFF8000B00688047DFF8FC1A0978C0B21B
:10748000884209D0002084F8FC01DFF8E80A00688F
:107490008047DFF8E41A087094F80802012840F0E9
:1074A0009A80B878002840F0968094F8FC01002873
:1074B00040F091807878002845D1B4F8260142F256
:1074C000107111FA80F0B4F80A12884280F27F80BD
:1074D00094F80902302815D294F80902401C84F867
:1074E0000902D4F80002B4F9A81100FA81F0C4F836
:1074F0000002D4F80402B4F9AA1100FA81F0C4F829
:10750000040264E0002084F80902D4F8000230216B
:1075100090FBF1F0A4F8A801D4F80402302190FB0C
:10752000F1F0A4F8AA010020C4F800020020C4F879
:1075300004020020A4F80A02002084F808020120B6
:1075400084F8FC0143E0B4F80A0242F2107111FA27
:1075500080F0B4F82611884239DA94F8090230280C
:1075600015D294F80902401C84F80902D4F80002EC
:10757000B4F9A81100FA81F0C4F80002D4F80402AA
:10758000B4F9AA1100FA81F0C4F804021FE0002047
:1075900084F80902D4F80002302190FBF1F0A4F83D
:1075A000A801D4F80402302190FBF1F0A4F8AA015C
:1075B0000020C4F800020020C4F804020020A4F84F
:1075C0000A02002084F80802012084F8FC01B4F8C3
:1075D0002601A4F80A02B4F98E01DFF8A01909689F
:1075E0008847374800883F2802D03848384901602A
:1075F00005B0BDE8F08F80B5FEF74CFB012803D045
:10760000FEF750FB012802D1022009F0B0F801BDBD
:10761000F0B402000023002500240020002A01D439
:10762000140000E05442002A08D1002902D40026A8
:10763000300034E04FF48046300030E0002917D4A9
:107640000E1B3603671896FBF7F6330003FB03F6B1
:1076500035002D135D432D134FF480767543DFF80D
:10766000206906FB0356B61216F58056300016E068
:1076700066183603671A96FBF7F6330003FB03F62A
:1076800035002D135D432D134FF480767543DFF8DD
:10769000F06806FB0356B61216F540563000002A75
:1076A00000D540424004400C00B2F0BC70470000DE
:1076B0007C100020841000208C100020641000201A
:1076C00028110020080E0020941000200CED00E08E
:1076D0000407FA05F4100020451100204411002091
:1076E0003D1100203E1100203F110020A01000207D
:1076F00034FEFFFF00110020A4100020981000208D
:107700009C100020FC100020F810002040110020E8
:10771000E010002043110020411100202DE9F04F1E
:107720008FB02F4C06F0A2F8050006F09BF80E90E3
:107730000020ADF802000020ADF8000000200D9000
:1077400000200C900020ADF806000020ADF80400E9
:107750005FF000095FF0000A00200290002007900F
:107760005FF0000B0020059000200990002700200A
:10777000069000200B9000200A9000200490002624
:10778000002003905FF0000800200890B4F9EC009E
:10779000B4F97C1101FA80F04010A4F8DC00B4F9CF
:1077A000EE00B4F97E1101FA80F04010A4F8DE007A
:1077B000B4F87C01A4F8EC00B4F87E01A4F8EE0063
:1077C000B4F8B800A4F8F000B4F8BA00A4F8F200D5
:1077D000B4F9D200002805D4B4F9D200089005E02D
:1077E0000C0E0020B4F9D20040420890B4F9DA003F
:1077F000002802D4B4F9DA0002E0B4F9DA00404219
:10780000C4F84801B4F8DC00B4F80411401AADF82B
:107810000200BDF9020040F24E21884204DB40F232
:107820004D20ADF8020009E0BDF902007FF41371AC
:10783000884203DA7FF41370ADF80200B4F8DE007A
:10784000B4F80611401AADF80000BDF9000040F28E
:107850004E21884204DB40F24D20ADF8000009E0E3
:10786000BDF900007FF41371884203DA7FF41370CE
:10787000ADF80000B4F9C60080100590B4F86801B6
:1078800005994843401206900698059948434013CD
:1078900041F27A11484340130990D4F81801BDF918
:1078A00000104843D4F80C11401A0700059878439B
:1078B000401341F27A11484340130B90D4F8080169
:1078C000D4F81811BDF9022002FB11000700059839
:1078D0007843401341F27A11484340130A90D4F898
:1078E00008010B99099AD4F81C31D21ABDF902305B
:1078F00003FB02110818C4F80801D4F80C010A9916
:10790000099AD4F81C31D21ABDF9003003FB0211D8
:107910000818C4F80C01D4F80801C013A4F8100129
:10792000D4F80C01C013A4F81201D4F82001BDF959
:107930000210484307000698BDF9001001FB1077BC
:10794000B4F86C01B4F9041101FB1077B4F9F0003C
:10795000B4F91011401A10EBE7300D90D4F8FC0088
:10796000B5F884100D9A02FB0100C4F8FC00D4F8AD
:10797000FC000014A4F80401D4F82001BDF90010A3
:10798000484307000698BDF9021001FB0077B4F8E0
:107990006C01B4F9061101FB1077B4F9F200B4F9E7
:1079A0001211401A10EBE7300C90D4F80001B5F832
:1079B00084100C9A02FB0100C4F80001D4F8000105
:1079C0000014A4F80601B4F91401B4F91411B4F9BF
:1079D0001621B4F916315A4301FB0020C4F8E40023
:1079E000D4F8E40021782C22DFF89C3D02FB013121
:1079F000B1F91C1048438012C4F84C01B4F9C80016
:107A000040F2DC51884280F27181607B002840F0B6
:107A10006D81D4F84C0180108046B8F1650F0CD30D
:107A2000B8F16400C00810F16408B8F1C90F04D3BC
:107A3000B8F1C800C00810F1C808B4F9C6000028A1
:107A400003D55FF0FF3000FB08F8D4F85001D4F8FC
:107A50005411D4F85821891A522202FB0100C4F8AB
:107A60005001C4F85481D4F850010014C4F85801EE
:107A7000D4F85801002802D4D4F8580102E0D4F810
:107A800058014042C4F85C010E980078012806D1E4
:107A9000D4F85C01142802DA1420C4F85C01D4F88C
:107AA0005C0143F69821484303900398001341F684
:107AB0004E01484300130600B4F91211B4F9100145
:107AC0004042FFF7A5FDADF80600B4F9C6000A284C
:107AD00004DBBDF80600ADF8040012E0B4F9C600FE
:107AE0007FF00901884208DABDF8060010F58040F1
:107AF0004004400CADF8040003E0D4F83001ADF8C8
:107B00000400BDF80400B4F93C11D4F83421514309
:107B1000091311FA80F081465FEA49495FEA594941
:107B20001FFA89F9D4F83001B9EB00008246BAF5A2
:107B3000804F02DDBAF5004A04E01AF5804F01DA01
:107B40001AF5004A564501DAB24604E01AEB060F70
:107B500001DA704282462078012832D1089840012B
:107B6000D4F84811884258DAB4F91601002802D432
:107B7000B4F9160102E0B4F916014042042815DBFD
:107B8000B4F91401002802D4B4F9140102E0B4F9E4
:107B900014014042042809DBB4F91401DFF8341E53
:107BA0004843B4F9161190FBF1F002900298864216
:107BB00001DA029631E00298F0422EDA7042029029
:107BC0002BE0B4F91601002802D4B4F9160102E042
:107BD000B4F916014042042815DBB4F91401002859
:107BE00002D4B4F9140102E0B4F9140140420428AB
:107BF00009DBB4F91401DFF8DC1D4843B4F91611B0
:107C000090FBF1F002900298864201DA029604E0BD
:107C10000298F04201DA70420290029810EB0A0AD0
:107C200020782C21DFF8602B01FB0020B0F9140034
:107C3000B4F98E1148430790D4F83801B5F98A1089
:107C40000AFB01F110EBA130C4F838010798D4F811
:107C50003811401A8346D4F84001001129214843C5
:107C6000BBEBA02BB5F988000AFB00BBD4F84001A0
:107C70005FEA6B3141F27A12514310EB6130C4F884
:107C800040010398D4F84011884203DA0398C4F8FD
:107C9000400108E0D4F840010399C84203DA039890
:107CA0004042C4F84001B5F98600D4F840110913E8
:107CB00041F64E0251430AFB00100014C4F82C0197
:107CC000301104900498D4F82C11884203DA0498F7
:107CD000C4F82C0190E0D4F82C010499C84280F239
:107CE0008B8004984042C4F82C0185E0B4F912114D
:107CF000B4F910014042FFF78BFCADF80600B4F96F
:107D0000C6000A2804DBBDF80600ADF8040012E046
:107D1000B4F9C6007FF00901884208DABDF8060010
:107D200010F580404004400CADF8040003E0D4F8A6
:107D30003001ADF80400BDF80400B4F93C11D4F8EA
:107D400034215143091311FA80F081465FEA494911
:107D50005FEA59491FFA89F9D4F83001B9EB0000FC
:107D60008246BAF5804F02DDBAF5004A04E01AF502
:107D7000804F01DA1AF5004A20782C21DFF8082A12
:107D800001FB0020B0F91400B4F98E1148430790AC
:107D9000D4F83801B5F98A100AFB01F110EBA130D3
:107DA000C4F838010798D4F83811401A8346D4F83B
:107DB0004001001129214843BBEBA02BB5F98800F5
:107DC0000AFB00BBD4F840015FEA6B3141F27A1242
:107DD000514310EB6130C4F84001B5F98600D4F886
:107DE0004011091341F64E0251430AFB00100014E2
:107DF000C4F82C01012060730E980078012820D16E
:107E0000DFF8600E0068152816D0A07B002809D185
:107E1000D4F82C0110F1100F04DA7FF00F00C4F831
:107E20002C0109E0A07B012806D1D4F82C011128EF
:107E300002DB1020C4F82C0100206081002020818A
:107E400001E004F091F9D4F83001D4F82C110818AD
:107E5000C4F83001D4F830014004400CC4F83001BB
:107E6000D4F83001A4F82801D4F84001C0108B21C7
:107E700048430014A4F83C01B4F93C01002802D4A2
:107E8000B4F93C0102E0B4F93C014042A4F84401D9
:107E9000B4F8280101F07AFFB4F97A00B4F91011AE
:107EA000B4F97820B4F912315A4301FB0020C01311
:107EB000A4F81401B4F978004042B4F91011B4F9EF
:107EC0007A20B4F912315A4301FB0020C013A4F800
:107ED0001601D4F8CC00B4F9D010B4F9D220891A24
:107EE000522202FB0100C4F8CC00B4F81401A4F83B
:107EF000D000D4F8CC000014A4F8D200D4F8D400F8
:107F0000B4F9D810B4F9DA20891A522202FB010020
:107F1000C4F8D400B4F81601A4F8D800D4F8D400FA
:107F20000014A4F8DA00D4F8C000B4F9C410B4F90D
:107F3000C620891A4FF4897202FB0100C4F8C00000
:107F4000B4F83C01A4F8C400D4F8C0000014A4F8AC
:107F5000C600B4F9C600002802D4B4F9C60002E095
:107F6000B4F9C6004042A4F8C8000FB0BDE8F08FD5
:107F700060600F40C410002042110020AC100020AF
:107F800000FBFFFF2DE9F04F8FB0DFF8DC4C05F070
:107F90006DFC05000020ADF820000020ADF80200C7
:107FA0000020ADF8000000200D9000200C90002073
:107FB000ADF806000020ADF80400002600270020E0
:107FC000039000200B905FF0000800200590002037
:107FD00007905FF0000A0020069000200A90002021
:107FE0000990002004905FF00009002002905FF0EB
:107FF000000BB4F9EC00B4F97C1101FA80F04010E8
:10800000A4F8DC00B4F9EE00B4F97E1101FA80F0B6
:108010004010A4F8DE00B4F8B800A4F8F000B4F8FA
:10802000BA00A4F8F200B4F87C01A4F8EC00B4F8AB
:108030007E01A4F8EE00B4F9DC00B4F9DC10B4F968
:10804000DE20B4F9DE305A4301FB00200E21484304
:108050004013C4F8E000D4F8E00041F20371884214
:1080600004DB41F20270ADF8200003E0D4F8E00038
:10807000ADF82000D4F8F400B4F9F810B4F9FA20FF
:10808000891A42F22B0202FB0100C4F8F400BDF889
:108090002000A4F8F800D4F8F4000014A4F8FA00C2
:1080A000A079012801D100F071FBB4F9DA000028B1
:1080B00002D4B4F9DA0002E0B4F9DA004042C4F8BC
:1080C0004801B4F8DC00B4F80411401AADF802001D
:1080D000BDF9020040F24E21884204DB40F24D20FF
:1080E000ADF8020009E0BDF902007FF41371884287
:1080F00003DA7FF41370ADF80200B4F8DE00B4F8D0
:108100000611401AADF80000BDF9000040F24E2102
:10811000884204DB40F24D20ADF8000009E0BDF9D3
:1081200000007FF41371884203DA7FF41370ADF816
:108130000000B4F9C60080100590B4F868010599F4
:10814000484340120690069805994843401341F26F
:108150007A11484340130790D4F81801BDF9001074
:108160004843D4F80C11401A824605980AFB00F0E7
:10817000401341F27A11484340130A90D4F80801A1
:10818000D4F81811BDF9022002FB110082460598AF
:108190000AFB00F0401341F27A1148434013099062
:1081A000D4F808010A99079AD4F81C31D21ABDF9FB
:1081B000023003FB02110818C4F80801D4F80C01BE
:1081C0000999079AD4F81C31D21ABDF9003003FB83
:1081D00002110818C4F80C01D4F80801C013A4F85F
:1081E0001001D4F80C01C013A4F81201D4F8200136
:1081F000BDF90210484382460698BDF9001001FB04
:1082000010AAB4F86C01B4F9041101FB10AAB4F976
:10821000F000B4F91011401A10EBEA300D90D4F8C8
:10822000FC00B5F884100D9A02FB0100C4F8FC00B4
:10823000D4F8FC000014A4F80401D4F82001BDF91E
:108240000010484382460698BDF9021001FB00AABF
:10825000B4F86C01B4F9061101FB10AAB4F9F200EC
:10826000B4F91211401A10EBEA300C90D4F8000166
:10827000B5F884100C9A02FB0100C4F80001D4F890
:1082800000010014A4F80601B4F91401B4F91411A2
:10829000B4F91621B4F916315A4301FB0020C4F891
:1082A000E400D4F8E40021782C22DFF8DC3402FB6F
:1082B0000131B1F91C1048438012C4F84C01D4F8C4
:1082C0004C0180108346BBF1650F0CD3BBF16400F9
:1082D000C00810F1640BBBF1C90F04D3BBF1C80097
:1082E000C00810F1C80BB4F9C600002803D55FF030
:1082F000FF3000FB0BFBD4F85001D4F85411D4F834
:108300005821891A522202FB0100C4F85001C4F816
:1083100054B1D4F850010014C4F85801D4F85801ED
:10832000002802D4D4F8580102E0D4F858014042A1
:10833000C4F85C01D4F85C01142802DA1420C4F8F3
:108340005C01D4F85C0143F6982148430290E87838
:10835000012807D10298001341F64E0148438012CC
:10836000814606E00298001341F64E01484300138F
:108370008146B4F91211B4F910014042FFF748F9EF
:10838000ADF80600B4F9C6000A2804DBBDF8060003
:10839000ADF8040012E0B4F9C6007FF0090188428C
:1083A00008DABDF8060010F580404004400CADF836
:1083B000040003E0D4F83001ADF80400BDF8040077
:1083C000B4F93C11D4F834215143091311FA80F067
:1083D00006007604760CB6B2D4F83001301A0700E5
:1083E000B7F5804F02DDB7F5004704E017F5804F81
:1083F00001DA17F50047B94501DA4F4605E017EBFA
:10840000090F02DAD9F10000070094F811020128DF
:1084100034D1B4F9C800652830DBB4F9160100285E
:1084200002D4B4F9160102E0B4F91601404207285B
:1084300024DBB4F91401002802D4B4F9140102E0D9
:10844000B4F914014042072818DBB4F91401DFF82D
:1084500084154843B4F9161190FBF1F0039003988A
:10846000814502DACDF80C9006E0039810EB090F75
:1084700002DAD9F1000003900398C719B5F98C000E
:10848000B4F98E1148430B90D4F83801B5F98A102D
:10849000794310EBA130C4F838010B98D4F83811A7
:1084A000401A8046D4F84001001129214843B8EB16
:1084B000A028B5F9880007FB0088D4F840015FEADE
:1084C000683141F27A12514310EB6130C4F8400137
:1084D0000298D4F84011884203DA0298C4F84001A7
:1084E00008E0D4F840010299C84203DA02984042F9
:1084F000C4F84001B5F98600D4F84011091341F6DB
:108500004E02514307FB00100014C4F82C015FEA2F
:10851000291004900498D4F82C11884203DA0498A6
:10852000C4F82C0108E0D4F82C010499C84203DAFD
:1085300004984042C4F82C0195F84500DFF8441D2A
:108540000978884207D000F085F995F84500DFF8F2
:10855000341D08700DE095F84600DFF8D81D097845
:10856000884206D000F0D6F995F84600DFF8C41D21
:108570000870DFF8F006006815282ED195F838004D
:1085800001282AD1B4F9FA00042823DAB4F8460203
:108590000F2816D30F20A4F84602012020730020D4
:1085A000A4F83C010020C4F840010020C4F8C00039
:1085B0000020A4F8C4000020A4F8C6000020C4F8DD
:1085C0003801B4F84602401CA4F846020020C4F862
:1085D0002C0102E00020A4F8460295F84400DFF8E0
:1085E000581D0978884206D000F0F6F995F8440045
:1085F000DFF8441D087094F8110201282ED194F878
:108600001002022817D2A07B002809D1D4F82C012F
:1086100010F1100F04DA7FF00F00C4F82C011DE0F8
:10862000A07B01281AD1D4F82C01112816DB1020C8
:10863000C4F82C0112E094F8120201280ED1D4F8EB
:108640004C010A2803DAB4F94401642803DBB4F9C5
:108650004401142802DA012084F82002D4F8300101
:10866000D4F82C110818C4F83001D4F830014004B3
:10867000400CC4F83001D4F83001A4F82801D4F833
:108680004001C0108B2148430014A4F83C01B4F908
:108690003C01002802D4B4F93C0102E0B4F93C01E9
:1086A0004042A4F84401B4F8280101F06FFBB4F98A
:1086B0007A00B4F91011B4F97820B4F912315A43A0
:1086C00001FB0020C013A4F81401B4F97800404263
:1086D000B4F91011B4F97A20B4F912315A4301FBFC
:1086E0000020C013A4F81601D4F8CC00B4F9D010BF
:1086F000B4F9D220891A522202FB0100C4F8CC003E
:10870000B4F81401A4F8D000D4F8CC000014A4F8F4
:10871000D200D4F8D400B4F9D810B4F9DA20891A08
:10872000522202FB0100C4F8D400B4F81601A4F8E8
:10873000D800D4F8D4000014A4F8DA00D4F8C000AB
:10874000B4F9C410B4F9C620891A4FF4897202FB37
:108750000100C4F8C000B4F83C01A4F8C400D4F887
:10876000C0000014A4F8C600B4F9C600002802D462
:10877000B4F9C60002E0B4F9C6004042A4F8C8004B
:108780000FB0BDE8F08F0000C0F8000010B4DFF8B3
:10879000D80400210022D0F8E030012B44DBB0F9EE
:1087A000DC303C2B04DB7FF01A03A0F8E8300CE04F
:1087B000B0F9DC307FF03A04A34203DA1B23A0F8BF
:1087C000E83002E00023A0F8E830B0F9DC30002BFC
:1087D00002D4B0F9DC1002E0B0F9DC104942B0F983
:1087E000DE30002B02D4B0F9DE2002E0B0F9DE204A
:1087F000524240F2ED635A43921211F11E039A4223
:108800000CDBB0F9DE30012B04DB7FF01E03A0F897
:10881000EA300FE01F23A0F8EA300BE08A4209DAC1
:108820000023A0F8EA3005E00023A0F8E830002398
:10883000A0F8EA30B0F8F030B0F8E840E318A0F85B
:10884000F030B0F8F230B0F8EA40E318A0F8F230B7
:1088500010BC7047DFF81004D0F8401107225143D4
:10886000C910C0F84011D0F838114910C0F83811BB
:10887000B0F9D21007225143C910A0F8D210B0F9B4
:10888000D2100904C0F8CC10B0F8D210A0F8D01063
:10889000B0F9DA1007225143C910A0F8DA10B0F984
:1088A000DA100904C0F8D410B0F8DA10A0F8D81023
:1088B000B0F9C61007225143C910A0F8C610B0F98C
:1088C000C6100904C0F8C010B0F8C610A0F8C41053
:1088D000D0F8581107225143C910C0F85811D0F8E8
:1088E00058110904C0F85011D0F85811C0F85411AB
:1088F000D0F85811002902D4D0F8581102E0D0F86D
:1089000058114942C0F85C11002101730021A0F800
:1089100046127047D448D0F840110F225143091134
:10892000C0F84011D0F838114910C0F83811B0F92A
:10893000D2100F2251430911A0F8D210B0F9D21071
:108940000904C0F8CC10B0F8D210A0F8D010B0F9DB
:10895000DA100F2251430911A0F8DA10B0F9DA1039
:108960000904C0F8D410B0F8DA10A0F8D810B0F9A3
:10897000C6100F2251430911A0F8C610B0F9C61055
:108980000904C0F8C010B0F8C610A0F8C410D0F8A0
:1089900058110F2251430911C0F85811D0F858113D
:1089A0000904C0F85011D0F85811C0F85411D0F88B
:1089B0005811002902D4D0F8581102E0D0F858110B
:1089C0004942C0F85C11002101730021A0F8461251
:1089D00070470000A1EBFFFFA3480021A0F83C1165
:1089E0000021C0F840110021C0F8C0100021A0F8FB
:1089F000C4100021A0F8C6100021C0F838110021D1
:108A00000173704710B5984C04F02CFFB4F87C113A
:108A1000A4F8EC10B4F87E11A4F8EE10B4F87C11B0
:108A2000A4F80411B4F87E11A4F80611B4F90411E5
:108A30000904C4F8FC10B4F906110904C4F80011C3
:108A4000B4F87C11A4F8DC10B4F87E11A4F8DE10A0
:108A50000021C4F808110021C4F80C114179012942
:108A600011D1A17B002907D17FF00901A4F83C11A5
:108A70000021C4F8381117E00A21A4F83C110021A4
:108A8000C4F8381110E0A17B002906D10121A4F817
:108A90003C110021C4F8381106E05FF0FF31A4F862
:108AA0003C110021C4F83811B4F93C11002902D45A
:108AB000B4F93C1102E0B4F93C114942A4F8441164
:108AC000B4F93C1140F6BB625143C4F84011B4F80C
:108AD0003C11A4F8C610B4F83C11A4F8C410B4F9C1
:108AE0003C110904C4F8C010B4F9C610002902D41E
:108AF000B4F9C61002E0B4F9C6104942A4F8C8108F
:108B0000B4F82611A4F82811B4F82611C4F83011CD
:108B10000021C4F82C110021C4F834110021C4F83C
:108B2000CC100021A4F8D0100021A4F8D21000210C
:108B3000C4F8D4100021A4F8D8100021A4F8DA1049
:108B40000021C4F850110021C4F854110021C4F8C8
:108B500058110021C4F85C1141F20271A4F8FA1016
:108B6000B4F8FA10A4F8F810B4F9FA100904C4F82B
:108B7000F41010BD2DE9F0473B48002100220023EE
:108B800000240025002600275FF0000C5FF0000E97
:108B90005FF00008B0F8869040F2AE3A0AFB09F99F
:108BA0005FEA99394A46012A51DBB0F9689002FB25
:108BB00009F95FEAA9290FFA89F94B46B0F96A90D9
:108BC00002FB09F95FEAA9290FFA89F94C46B0F9C5
:108BD0006C9002FB09F95FEAA9290FFA89F94D4661
:108BE00014EB030915EB09095FF0030A99FBFAF985
:108BF0004946B3EB01094E46B4EB01094F46B5EBCC
:108C00000109CC46B646B7EB0C0944F6E61A0AFB56
:108C100009F95FEAE939C846B0F97A90B0F978A065
:108C200008FB0AFA0EFB09A95FEAE939C0F870905F
:108C3000B0F97890D9F10009B0F97AA008FB0AFAE6
:108C40000EFB09A95FEAE939C0F8749007E05FF00C
:108C50000009C0F870905FF00009C0F87490BDE89A
:108C6000F087000028600F400C0E00202DE9F04135
:108C7000DFF8104904F0FAFD00210022002300254E
:108C8000B4F89061B4F88C71F61B3100D4F8AC6183
:108C9000D4F8B47109B201FB0766C4F89861D4F83E
:108CA0007461B4F95A707E433613B4F98E717E4301
:108CB0003300D4F89861F61AC4F89861D4F8AC611E
:108CC000D4F8B87109B2D4F8BCC1D4F870E0D4F8C3
:108CD0009C81D8EB8E3E5FEA2E4E0EFB0CFC01FB16
:108CE00007C7BE19C4F8AC61D4F89861C4F89C6198
:108CF00090F89060012E11D1466ED4F89871BE4262
:108D000003DA466EC4F8986119E0D4F89861876E6A
:108D1000BE4214DA866EC4F8986110E0466FD4F84B
:108D20009871BE4203DA466FC4F8986107E0D4F840
:108D30009861876FBE4202DA866FC4F89861D4F8F2
:108D40009861B613A4F8A861B4F89261B4F88E7172
:108D5000F61B3200D4F8B061D4F8C07112B202FB35
:108D60000766C4F8A061D4F87461B4F95A707E4300
:108D70003613B4F98C71D4F878C1B4F95AE00EFB0B
:108D80000CFC5FEAAC0C07FB06C63500D4F8A0610A
:108D9000AE19C4F8A061D4F8B061D4F8C47112B2AD
:108DA000D4F8C8C1D4F874E0D4F8A481D8EB8E3ECE
:108DB0005FEA2E4E0EFB0CFC02FB07C7BE19C4F87F
:108DC000B061D4F8A061C4F8A46190F89060012E5D
:108DD00011D1C66DD4F8A071BE4203DAC66DC4F8D5
:108DE000A0611BE0D4F8A061076EBE4216DA066EE1
:108DF000C4F8A06112E0C66FD4F8A071BE4203DAD5
:108E0000C66FC4F8A06109E0D4F8A061D0F8807002
:108E1000BE4203DAD0F88060C4F8A061D4F8A06143
:108E2000B613A4F8AA61BDE8F081F8B5DFF854479D
:108E300004F01CFD00212278C023DFF8205D03FB35
:108E4000025292692378C025DFF8106D05FB036399
:108E5000DB692578C026DFF8047D06FB05752D6AE1
:108E6000D4F8AC61B4F99071B4F98CC1B7EB0C07CC
:108E700007FB0266C4F89861D4F898613100466F28
:108E8000D4F89871BE4203DA466FC4F8986107E0DF
:108E9000D4F89861876FBE4202DA866FC4F8986191
:108EA000D4F8AC61B4F99071B4F98CC1B7EB0C078C
:108EB000D4F898C1BCEB010C5FEA2C4C0CFB05FC10
:108EC00007FB03C7BE19C4F8AC61D4F89861B613A8
:108ED000A4F8A86194F8EA61012E3CD1D4F8B061FD
:108EE000B4F99271B4F98EC1B7EB0C0707FB0266B7
:108EF000C4F8A061D4F8A0613100C66FD4F8A071A5
:108F0000BE4203DAC66FC4F8A06109E0D4F8A061DC
:108F1000D0F88070BE4203DAD0F88060C4F8A06157
:108F2000D4F8B061B4F99271B4F98EC1B7EB0C0703
:108F3000D4F8A0C1BCEB010C5FEA2C4C0CFB05FC87
:108F400007FB03C7BE19C4F8B061D4F8A061B6131B
:108F5000A4F8AA6108E00026C4F8B0610026C4F8AD
:108F6000A0610026A4F8AA61F1BD2DE9F047DFF861
:108F70001446DFF8EC5B002600275FF000085FF086
:108F800000095FF0000ADFF8DC0B008850F00800F1
:108F9000DFF8D01B0880606B45F2B861884218D2B8
:108FA000DFF8D40D00210160DFF8D00D0021016051
:108FB000DFF8B40B00210160DFF8C40D002101606F
:108FC000DFF8C00D00210160DFF8BC0D0021016059
:108FD00055E1606B48F27D21884223D3606B49F2F2
:108FE0007D2188421ED2DFF8900D0068B4F99411FB
